{
  "_format": "hh-sol-artifact-1",
  "contractName": "Counter",
  "sourceName": "contracts/Counter.sol",
  "abi": [
    {
      "inputs": [],
      "name": "count",
      "outputs": [
        {
          "internalType": "uint256",
          "name": "",
          "type": "uint256"
        }
      ],
      "stateMutability": "view",
      "type": "function"
    },
    {
      "inputs": [],
      "name": "getCount",
      "outputs": [
        {
          "internalType": "uint256",
          "name": "",
          "type": "uint256"
        }
      ],
      "stateMutability": "view",
      "type": "function"
    },
    {
      "inputs": [],
      "name": "increment",
      "outputs": [],
      "stateMutability": "nonpayable",
      "type": "function"
    }
  ],
  "bytecode": "0x608060405234801561001057600080fd5b50610183806100206000396000f3fe608060405234801561001057600080fd5b50600436106100415760003560e01c806306661abd14610046578063a87d942c14610064578063d09de08a14610082575b600080fd5b61004e61008c565b60405161005b91906100cf565b60405180910390f35b61006c610092565b60405161007991906100cf565b60405180910390f35b61008a61009b565b005b60005481565b60008054905090565b60016000808282546100ad9190610119565b92505081905550565b6000819050919050565b6100c9816100b6565b82525050565b60006020820190506100e460008301846100c0565b92915050565b7f4e487b7100000000000000000000000000000000000000000000000000000000600052601160045260246000fd5b6000610124826100b6565b915061012f836100b6565b9250828201905080821115610147576101466100ea565b5b9291505056fea2646970667358221220356e5923bce196bdb7c0f179140e607e8e09201b466e34e58fef9c55f8b1a70964736f6c63430008140033",
  "linkReferences": {},
  "deployedLinkReferences": {}
}