{
  "_format": "hh-sol-artifact-1",
  "contractName": "ftUSDInteractor",
  "sourceName": "contracts/ftUSDInteractor.sol",
  "abi": [
    {
      "inputs": [
        {
          "internalType": "address",
          "name": "_ftUSD",
          "type": "address"
        }
      ],
      "stateMutability": "nonpayable",
      "type": "constructor"
    },
    {
      "inputs": [],
      "name": "ftUSD",
      "outputs": [
        {
          "internalType": "contract IERC20",
          "name": "",
          "type": "address"
        }
      ],
      "stateMutability": "view",
      "type": "function"
    },
    {
      "inputs": [
        {
          "internalType": "address",
          "name": "user",
          "type": "address"
        }
      ],
      "name": "getBalance",
      "outputs": [
        {
          "internalType": "uint256",
          "name": "",
          "type": "uint256"
        }
      ],
      "stateMutability": "view",
      "type": "function"
    },
    {
      "inputs": [],
      "name": "lastMint",
      "outputs": [
        {
          "internalType": "uint256",
          "name": "",
          "type": "uint256"
        }
      ],
      "stateMutability": "view",
      "type": "function"
    },
    {
      "inputs": [
        {
          "internalType": "uint256",
          "name": "amount",
          "type": "uint256"
        }
      ],
      "name": "mint",
      "outputs": [],
      "stateMutability": "nonpayable",
      "type": "function"
    }
  ],
  "bytecode": "0x608060405234801561001057600080fd5b506040516105b73803806105b7833981810160405281019061003291906100db565b806000806101000a81548173ffffffffffffffffffffffffffffffffffffffff021916908373ffffffffffffffffffffffffffffffffffffffff16021790555050610108565b600080fd5b600073ffffffffffffffffffffffffffffffffffffffff82169050919050565b60006100a88261007d565b9050919050565b6100b88161009d565b81146100c357600080fd5b50565b6000815190506100d5816100af565b92915050565b6000602082840312156100f1576100f0610078565b5b60006100ff848285016100c6565b91505092915050565b6104a0806101176000396000f3fe608060405234801561001057600080fd5b506004361061004c5760003560e01c8063586fc5b514610051578063786d19df1461006f578063a0712d681461008d578063f8b2cb4f146100a9575b600080fd5b6100596100d9565b6040516100669190610257565b60405180910390f35b6100776100df565b60405161008491906102f1565b60405180910390f35b6100a760048036038101906100a2919061033d565b610103565b005b6100c360048036038101906100be91906103a8565b61019a565b6040516100d09190610257565b60405180910390f35b60015481565b60008054906101000a900473ffffffffffffffffffffffffffffffffffffffff1681565b60008054906101000a900473ffffffffffffffffffffffffffffffffffffffff1673ffffffffffffffffffffffffffffffffffffffff166340c10f1933836040518363ffffffff1660e01b815260040161015e9291906103e4565b600060405180830381600087803b15801561017857600080fd5b505af115801561018c573d6000803e3d6000fd5b505050504260018190555050565b60008060009054906101000a900473ffffffffffffffffffffffffffffffffffffffff1673ffffffffffffffffffffffffffffffffffffffff166370a08231836040518263ffffffff1660e01b81526004016101f6919061040d565b602060405180830381865afa158015610213573d6000803e3d6000fd5b505050506040513d601f19601f82011682018060405250810190610237919061043d565b9050919050565b6000819050919050565b6102518161023e565b82525050565b600060208201905061026c6000830184610248565b92915050565b600073ffffffffffffffffffffffffffffffffffffffff82169050919050565b6000819050919050565b60006102b76102b26102ad84610272565b610292565b610272565b9050919050565b60006102c98261029c565b9050919050565b60006102db826102be565b9050919050565b6102eb816102d0565b82525050565b600060208201905061030660008301846102e2565b92915050565b600080fd5b61031a8161023e565b811461032557600080fd5b50565b60008135905061033781610311565b92915050565b6000602082840312156103535761035261030c565b5b600061036184828501610328565b91505092915050565b600061037582610272565b9050919050565b6103858161036a565b811461039057600080fd5b50565b6000813590506103a28161037c565b92915050565b6000602082840312156103be576103bd61030c565b5b60006103cc84828501610393565b91505092915050565b6103de8161036a565b82525050565b60006040820190506103f960008301856103d5565b6104066020830184610248565b9392505050565b600060208201905061042260008301846103d5565b92915050565b60008151905061043781610311565b92915050565b6000602082840312156104535761045261030c565b5b600061046184828501610428565b9150509291505056fea264697066735822122023f2ece3f288ea65c359f7803ae4e245dbc4aae05ae303fed3b152ba77b2d80b64736f6c63430008140033",
  "linkReferences": {},
  "deployedLinkReferences": {}
}